{
  "contractName": "MyToken",
  "abi": [
    {
      "inputs": [],
      "stateMutability": "nonpayable",
      "type": "constructor"
    },
    {
      "anonymous": false,
      "inputs": [
        {
          "indexed": true,
          "internalType": "address",
          "name": "owner",
          "type": "address"
        },
        {
          "indexed": true,
          "internalType": "address",
          "name": "spender",
          "type": "address"
        },
        {
          "indexed": false,
          "internalType": "uint256",
          "name": "value",
          "type": "uint256"
        }
      ],
      "name": "Approval",
      "type": "event"
    },
    {
      "anonymous": false,
      "inputs": [
        {
          "indexed": true,
          "internalType": "address",
          "name": "from",
          "type": "address"
        },
        {
          "indexed": true,
          "internalType": "address",
          "name": "to",
          "type": "address"
        },
        {
          "indexed": false,
          "internalType": "uint256",
          "name": "value",
          "type": "uint256"
        }
      ],
      "name": "Transfer",
      "type": "event"
    },
    {
      "inputs": [
        {
          "internalType": "address",
          "name": "owner",
          "type": "address"
        },
        {
          "internalType": "address",
          "name": "spender",
          "type": "address"
        }
      ],
      "name": "allowance",
      "outputs": [
        {
          "internalType": "uint256",
          "name": "",
          "type": "uint256"
        }
      ],
      "stateMutability": "view",
      "type": "function",
      "constant": true
    },
    {
      "inputs": [
        {
          "internalType": "address",
          "name": "spender",
          "type": "address"
        },
        {
          "internalType": "uint256",
          "name": "amount",
          "type": "uint256"
        }
      ],
      "name": "approve",
      "outputs": [
        {
          "internalType": "bool",
          "name": "",
          "type": "bool"
        }
      ],
      "stateMutability": "nonpayable",
      "type": "function"
    },
    {
      "inputs": [
        {
          "internalType": "address",
          "name": "account",
          "type": "address"
        }
      ],
      "name": "balanceOf",
      "outputs": [
        {
          "internalType": "uint256",
          "name": "",
          "type": "uint256"
        }
      ],
      "stateMutability": "view",
      "type": "function",
      "constant": true
    },
    {
      "inputs": [],
      "name": "creator",
      "outputs": [
        {
          "internalType": "address",
          "name": "",
          "type": "address"
        }
      ],
      "stateMutability": "view",
      "type": "function",
      "constant": true
    },
    {
      "inputs": [],
      "name": "decimals",
      "outputs": [
        {
          "internalType": "uint8",
          "name": "",
          "type": "uint8"
        }
      ],
      "stateMutability": "view",
      "type": "function",
      "constant": true
    },
    {
      "inputs": [
        {
          "internalType": "address",
          "name": "spender",
          "type": "address"
        },
        {
          "internalType": "uint256",
          "name": "subtractedValue",
          "type": "uint256"
        }
      ],
      "name": "decreaseAllowance",
      "outputs": [
        {
          "internalType": "bool",
          "name": "",
          "type": "bool"
        }
      ],
      "stateMutability": "nonpayable",
      "type": "function"
    },
    {
      "inputs": [
        {
          "internalType": "address",
          "name": "spender",
          "type": "address"
        },
        {
          "internalType": "uint256",
          "name": "addedValue",
          "type": "uint256"
        }
      ],
      "name": "increaseAllowance",
      "outputs": [
        {
          "internalType": "bool",
          "name": "",
          "type": "bool"
        }
      ],
      "stateMutability": "nonpayable",
      "type": "function"
    },
    {
      "inputs": [],
      "name": "name",
      "outputs": [
        {
          "internalType": "string",
          "name": "",
          "type": "string"
        }
      ],
      "stateMutability": "view",
      "type": "function",
      "constant": true
    },
    {
      "inputs": [],
      "name": "symbol",
      "outputs": [
        {
          "internalType": "string",
          "name": "",
          "type": "string"
        }
      ],
      "stateMutability": "view",
      "type": "function",
      "constant": true
    },
    {
      "inputs": [],
      "name": "totalSupply",
      "outputs": [
        {
          "internalType": "uint256",
          "name": "",
          "type": "uint256"
        }
      ],
      "stateMutability": "view",
      "type": "function",
      "constant": true
    },
    {
      "inputs": [
        {
          "internalType": "address",
          "name": "to",
          "type": "address"
        },
        {
          "internalType": "uint256",
          "name": "amount",
          "type": "uint256"
        }
      ],
      "name": "transfer",
      "outputs": [
        {
          "internalType": "bool",
          "name": "",
          "type": "bool"
        }
      ],
      "stateMutability": "nonpayable",
      "type": "function"
    },
    {
      "inputs": [
        {
          "internalType": "address",
          "name": "from",
          "type": "address"
        },
        {
          "internalType": "address",
          "name": "to",
          "type": "address"
        },
        {
          "internalType": "uint256",
          "name": "amount",
          "type": "uint256"
        }
      ],
      "name": "transferFrom",
      "outputs": [
        {
          "internalType": "bool",
          "name": "",
          "type": "bool"
        }
      ],
      "stateMutability": "nonpayable",
      "type": "function"
    },
    {
      "inputs": [
        {
          "internalType": "address",
          "name": "account",
          "type": "address"
        },
        {
          "internalType": "uint256",
          "name": "amount",
          "type": "uint256"
        }
      ],
      "name": "mint",
      "outputs": [],
      "stateMutability": "nonpayable",
      "type": "function"
    }
  ],
  "bytecode": "0x608060405234801562000010575f80fd5b506040518060400160405280600781526020017f4d79546f6b656e000000000000000000000000000000000000000000000000008152506040518060400160405280600381526020017f4d544b000000000000000000000000000000000000000000000000000000000081525081600390816200008e91906200030d565b508060049081620000a091906200030d565b505050620003f1565b5f81519050919050565b7f4e487b71000000000000000000000000000000000000000000000000000000005f52604160045260245ffd5b7f4e487b71000000000000000000000000000000000000000000000000000000005f52602260045260245ffd5b5f60028204905060018216806200012557607f821691505b6020821081036200013b576200013a620000e0565b5b50919050565b5f819050815f5260205f209050919050565b5f6020601f8301049050919050565b5f82821b905092915050565b5f600883026200019f7fffffffffffffffffffffffffffffffffffffffffffffffffffffffffffffffff8262000162565b620001ab868362000162565b95508019841693508086168417925050509392505050565b5f819050919050565b5f819050919050565b5f620001f5620001ef620001e984620001c3565b620001cc565b620001c3565b9050919050565b5f819050919050565b6200021083620001d5565b620002286200021f82620001fc565b8484546200016e565b825550505050565b5f90565b6200023e62000230565b6200024b81848462000205565b505050565b5b818110156200027257620002665f8262000234565b60018101905062000251565b5050565b601f821115620002c1576200028b8162000141565b620002968462000153565b81016020851015620002a6578190505b620002be620002b58562000153565b83018262000250565b50505b505050565b5f82821c905092915050565b5f620002e35f1984600802620002c6565b1980831691505092915050565b5f620002fd8383620002d2565b9150826002028217905092915050565b6200031882620000a9565b67ffffffffffffffff811115620003345762000333620000b3565b5b6200034082546200010d565b6200034d82828562000276565b5f60209050601f83116001811462000383575f84156200036e578287015190505b6200037a8582620002f0565b865550620003e9565b601f198416620003938662000141565b5f5b82811015620003bc5784890151825560018201915060208501945060208101905062000395565b86831015620003dc5784890151620003d8601f891682620002d2565b8355505b6001600288020188555050505b505050505050565b61143480620003ff5f395ff3fe608060405234801561000f575f80fd5b50600436106100cd575f3560e01c8063395093511161008a57806395d89b411161006457806395d89b4114610225578063a457c2d714610243578063a9059cbb14610273578063dd62ed3e146102a3576100cd565b806339509351146101a957806340c10f19146101d957806370a08231146101f5576100cd565b806302d05d3f146100d157806306fdde03146100ef578063095ea7b31461010d57806318160ddd1461013d57806323b872dd1461015b578063313ce5671461018b575b5f80fd5b6100d96102d3565b6040516100e69190610c73565b60405180910390f35b6100f76102f8565b6040516101049190610d16565b60405180910390f35b61012760048036038101906101229190610d97565b610388565b6040516101349190610def565b60405180910390f35b6101456103aa565b6040516101529190610e17565b60405180910390f35b61017560048036038101906101709190610e30565b6103b3565b6040516101829190610def565b60405180910390f35b6101936103e1565b6040516101a09190610e9b565b60405180910390f35b6101c360048036038101906101be9190610d97565b6103e9565b6040516101d09190610def565b60405180910390f35b6101f360048036038101906101ee9190610d97565b61041f565b005b61020f600480360381019061020a9190610eb4565b61042d565b60405161021c9190610e17565b60405180910390f35b61022d610472565b60405161023a9190610d16565b60405180910390f35b61025d60048036038101906102589190610d97565b610502565b60405161026a9190610def565b60405180910390f35b61028d60048036038101906102889190610d97565b610577565b60405161029a9190610def565b60405180910390f35b6102bd60048036038101906102b89190610edf565b610599565b6040516102ca9190610e17565b60405180910390f35b60055f9054906101000a900473ffffffffffffffffffffffffffffffffffffffff1681565b60606003805461030790610f4a565b80601f016020809104026020016040519081016040528092919081815260200182805461033390610f4a565b801561037e5780601f106103555761010080835404028352916020019161037e565b820191905f5260205f20905b81548152906001019060200180831161036157829003601f168201915b5050505050905090565b5f8061039261061b565b905061039f818585610622565b600191505092915050565b5f600254905090565b5f806103bd61061b565b90506103ca8582856107e5565b6103d5858585610870565b60019150509392505050565b5f6012905090565b5f806103f361061b565b90506104148185856104058589610599565b61040f9190610fa7565b610622565b600191505092915050565b6104298282610adc565b5050565b5f805f8373ffffffffffffffffffffffffffffffffffffffff1673ffffffffffffffffffffffffffffffffffffffff1681526020019081526020015f20549050919050565b60606004805461048190610f4a565b80601f01602080910402602001604051908101604052809291908181526020018280546104ad90610f4a565b80156104f85780601f106104cf576101008083540402835291602001916104f8565b820191905f5260205f20905b8154815290600101906020018083116104db57829003601f168201915b5050505050905090565b5f8061050c61061b565b90505f6105198286610599565b90508381101561055e576040517f08c379a00000000000000000000000000000000000000000000000000000000081526004016105559061104a565b60405180910390fd5b61056b8286868403610622565b60019250505092915050565b5f8061058161061b565b905061058e818585610870565b600191505092915050565b5f60015f8473ffffffffffffffffffffffffffffffffffffffff1673ffffffffffffffffffffffffffffffffffffffff1681526020019081526020015f205f8373ffffffffffffffffffffffffffffffffffffffff1673ffffffffffffffffffffffffffffffffffffffff1681526020019081526020015f2054905092915050565b5f33905090565b5f73ffffffffffffffffffffffffffffffffffffffff168373ffffffffffffffffffffffffffffffffffffffff1603610690576040517f08c379a0000000000000000000000000000000000000000000000000000000008152600401610687906110d8565b60405180910390fd5b5f73ffffffffffffffffffffffffffffffffffffffff168273ffffffffffffffffffffffffffffffffffffffff16036106fe576040517f08c379a00000000000000000000000000000000000000000000000000000000081526004016106f590611166565b60405180910390fd5b8060015f8573ffffffffffffffffffffffffffffffffffffffff1673ffffffffffffffffffffffffffffffffffffffff1681526020019081526020015f205f8473ffffffffffffffffffffffffffffffffffffffff1673ffffffffffffffffffffffffffffffffffffffff1681526020019081526020015f20819055508173ffffffffffffffffffffffffffffffffffffffff168373ffffffffffffffffffffffffffffffffffffffff167f8c5be1e5ebec7d5bd14f71427d1e84f3dd0314c0f7b2291e5b200ac8c7c3b925836040516107d89190610e17565b60405180910390a3505050565b5f6107f08484610599565b90507fffffffffffffffffffffffffffffffffffffffffffffffffffffffffffffffff811461086a578181101561085c576040517f08c379a0000000000000000000000000000000000000000000000000000000008152600401610853906111ce565b60405180910390fd5b6108698484848403610622565b5b50505050565b5f73ffffffffffffffffffffffffffffffffffffffff168373ffffffffffffffffffffffffffffffffffffffff16036108de576040517f08c379a00000000000000000000000000000000000000000000000000000000081526004016108d59061125c565b60405180910390fd5b5f73ffffffffffffffffffffffffffffffffffffffff168273ffffffffffffffffffffffffffffffffffffffff160361094c576040517f08c379a0000000000000000000000000000000000000000000000000000000008152600401610943906112ea565b60405180910390fd5b610957838383610c2a565b5f805f8573ffffffffffffffffffffffffffffffffffffffff1673ffffffffffffffffffffffffffffffffffffffff1681526020019081526020015f20549050818110156109da576040517f08c379a00000000000000000000000000000000000000000000000000000000081526004016109d190611378565b60405180910390fd5b8181035f808673ffffffffffffffffffffffffffffffffffffffff1673ffffffffffffffffffffffffffffffffffffffff1681526020019081526020015f2081905550815f808573ffffffffffffffffffffffffffffffffffffffff1673ffffffffffffffffffffffffffffffffffffffff1681526020019081526020015f205f82825401925050819055508273ffffffffffffffffffffffffffffffffffffffff168473ffffffffffffffffffffffffffffffffffffffff167fddf252ad1be2c89b69c2b068fc378daa952ba7f163c4a11628f55a4df523b3ef84604051610ac39190610e17565b60405180910390a3610ad6848484610c2f565b50505050565b5f73ffffffffffffffffffffffffffffffffffffffff168273ffffffffffffffffffffffffffffffffffffffff1603610b4a576040517f08c379a0000000000000000000000000000000000000000000000000000000008152600401610b41906113e0565b60405180910390fd5b610b555f8383610c2a565b8060025f828254610b669190610fa7565b92505081905550805f808473ffffffffffffffffffffffffffffffffffffffff1673ffffffffffffffffffffffffffffffffffffffff1681526020019081526020015f205f82825401925050819055508173ffffffffffffffffffffffffffffffffffffffff165f73ffffffffffffffffffffffffffffffffffffffff167fddf252ad1be2c89b69c2b068fc378daa952ba7f163c4a11628f55a4df523b3ef83604051610c139190610e17565b60405180910390a3610c265f8383610c2f565b5050565b505050565b505050565b5f73ffffffffffffffffffffffffffffffffffffffff82169050919050565b5f610c5d82610c34565b9050919050565b610c6d81610c53565b82525050565b5f602082019050610c865f830184610c64565b92915050565b5f81519050919050565b5f82825260208201905092915050565b5f5b83811015610cc3578082015181840152602081019050610ca8565b5f8484015250505050565b5f601f19601f8301169050919050565b5f610ce882610c8c565b610cf28185610c96565b9350610d02818560208601610ca6565b610d0b81610cce565b840191505092915050565b5f6020820190508181035f830152610d2e8184610cde565b905092915050565b5f80fd5b610d4381610c53565b8114610d4d575f80fd5b50565b5f81359050610d5e81610d3a565b92915050565b5f819050919050565b610d7681610d64565b8114610d80575f80fd5b50565b5f81359050610d9181610d6d565b92915050565b5f8060408385031215610dad57610dac610d36565b5b5f610dba85828601610d50565b9250506020610dcb85828601610d83565b9150509250929050565b5f8115159050919050565b610de981610dd5565b82525050565b5f602082019050610e025f830184610de0565b92915050565b610e1181610d64565b82525050565b5f602082019050610e2a5f830184610e08565b92915050565b5f805f60608486031215610e4757610e46610d36565b5b5f610e5486828701610d50565b9350506020610e6586828701610d50565b9250506040610e7686828701610d83565b9150509250925092565b5f60ff82169050919050565b610e9581610e80565b82525050565b5f602082019050610eae5f830184610e8c565b92915050565b5f60208284031215610ec957610ec8610d36565b5b5f610ed684828501610d50565b91505092915050565b5f8060408385031215610ef557610ef4610d36565b5b5f610f0285828601610d50565b9250506020610f1385828601610d50565b9150509250929050565b7f4e487b71000000000000000000000000000000000000000000000000000000005f52602260045260245ffd5b5f6002820490506001821680610f6157607f821691505b602082108103610f7457610f73610f1d565b5b50919050565b7f4e487b71000000000000000000000000000000000000000000000000000000005f52601160045260245ffd5b5f610fb182610d64565b9150610fbc83610d64565b9250828201905080821115610fd457610fd3610f7a565b5b92915050565b7f45524332303a2064656372656173656420616c6c6f77616e63652062656c6f775f8201527f207a65726f000000000000000000000000000000000000000000000000000000602082015250565b5f611034602583610c96565b915061103f82610fda565b604082019050919050565b5f6020820190508181035f83015261106181611028565b9050919050565b7f45524332303a20617070726f76652066726f6d20746865207a65726f206164645f8201527f7265737300000000000000000000000000000000000000000000000000000000602082015250565b5f6110c2602483610c96565b91506110cd82611068565b604082019050919050565b5f6020820190508181035f8301526110ef816110b6565b9050919050565b7f45524332303a20617070726f766520746f20746865207a65726f2061646472655f8201527f7373000000000000000000000000000000000000000000000000000000000000602082015250565b5f611150602283610c96565b915061115b826110f6565b604082019050919050565b5f6020820190508181035f83015261117d81611144565b9050919050565b7f45524332303a20696e73756666696369656e7420616c6c6f77616e63650000005f82015250565b5f6111b8601d83610c96565b91506111c382611184565b602082019050919050565b5f6020820190508181035f8301526111e5816111ac565b9050919050565b7f45524332303a207472616e736665722066726f6d20746865207a65726f2061645f8201527f6472657373000000000000000000000000000000000000000000000000000000602082015250565b5f611246602583610c96565b9150611251826111ec565b604082019050919050565b5f6020820190508181035f8301526112738161123a565b9050919050565b7f45524332303a207472616e7366657220746f20746865207a65726f20616464725f8201527f6573730000000000000000000000000000000000000000000000000000000000602082015250565b5f6112d4602383610c96565b91506112df8261127a565b604082019050919050565b5f6020820190508181035f830152611301816112c8565b9050919050565b7f45524332303a207472616e7366657220616d6f756e74206578636565647320625f8201527f616c616e63650000000000000000000000000000000000000000000000000000602082015250565b5f611362602683610c96565b915061136d82611308565b604082019050919050565b5f6020820190508181035f83015261138f81611356565b9050919050565b7f45524332303a206d696e7420746f20746865207a65726f2061646472657373005f82015250565b5f6113ca601f83610c96565b91506113d582611396565b602082019050919050565b5f6020820190508181035f8301526113f7816113be565b905091905056fea2646970667358221220e3444f8e5b50d843ec4ac95d4f83e99342e25e1a48fd220369f65c961cc77d9164736f6c63430008150033",
  "immutableReferences": {},
  "source": "//SPDX-License-Identifier: MIT\npragma solidity ^0.8.0;\n\nimport \"@openzeppelin/contracts/token/ERC20/ERC20.sol\";\n\ncontract MyToken is ERC20 {\n\n    address public creator;\n\n  constructor() ERC20(\"MyToken\", \"MTK\") {\n    // creator = msg.sender; \n    // Mint tokens on deploy\n    // _mint(msg.sender, 10000 * 10 ** decimals()); \n  }\n\n  function mint(address account, uint256 amount) public {\n    // Only allow the contract creator to mint more tokens \n    // require(msg.sender == creator, \"Only creator can mint\");\n    _mint(account, amount);\n  }\n}",
  "sourcePath": "/Users/kenf/Developer/archive/switcheo/Test5/contracts/MyToken.sol",
  "compiler": {
    "name": "solc",
    "version": "0.8.21+commit.d9974bed.Emscripten.clang"
  },
  "schemaVersion": "3.4.15",
  "updatedAt": "2023-08-21T14:44:10.470Z",
  "networkType": "ethereum",
  "devdoc": {
    "events": {
      "Approval(address,address,uint256)": {
        "details": "Emitted when the allowance of a `spender` for an `owner` is set by a call to {approve}. `value` is the new allowance."
      },
      "Transfer(address,address,uint256)": {
        "details": "Emitted when `value` tokens are moved from one account (`from`) to another (`to`). Note that `value` may be zero."
      }
    },
    "kind": "dev",
    "methods": {
      "allowance(address,address)": {
        "details": "See {IERC20-allowance}."
      },
      "approve(address,uint256)": {
        "details": "See {IERC20-approve}. NOTE: If `amount` is the maximum `uint256`, the allowance is not updated on `transferFrom`. This is semantically equivalent to an infinite approval. Requirements: - `spender` cannot be the zero address."
      },
      "balanceOf(address)": {
        "details": "See {IERC20-balanceOf}."
      },
      "decimals()": {
        "details": "Returns the number of decimals used to get its user representation. For example, if `decimals` equals `2`, a balance of `505` tokens should be displayed to a user as `5.05` (`505 / 10 ** 2`). Tokens usually opt for a value of 18, imitating the relationship between Ether and Wei. This is the default value returned by this function, unless it's overridden. NOTE: This information is only used for _display_ purposes: it in no way affects any of the arithmetic of the contract, including {IERC20-balanceOf} and {IERC20-transfer}."
      },
      "decreaseAllowance(address,uint256)": {
        "details": "Atomically decreases the allowance granted to `spender` by the caller. This is an alternative to {approve} that can be used as a mitigation for problems described in {IERC20-approve}. Emits an {Approval} event indicating the updated allowance. Requirements: - `spender` cannot be the zero address. - `spender` must have allowance for the caller of at least `subtractedValue`."
      },
      "increaseAllowance(address,uint256)": {
        "details": "Atomically increases the allowance granted to `spender` by the caller. This is an alternative to {approve} that can be used as a mitigation for problems described in {IERC20-approve}. Emits an {Approval} event indicating the updated allowance. Requirements: - `spender` cannot be the zero address."
      },
      "name()": {
        "details": "Returns the name of the token."
      },
      "symbol()": {
        "details": "Returns the symbol of the token, usually a shorter version of the name."
      },
      "totalSupply()": {
        "details": "See {IERC20-totalSupply}."
      },
      "transfer(address,uint256)": {
        "details": "See {IERC20-transfer}. Requirements: - `to` cannot be the zero address. - the caller must have a balance of at least `amount`."
      },
      "transferFrom(address,address,uint256)": {
        "details": "See {IERC20-transferFrom}. Emits an {Approval} event indicating the updated allowance. This is not required by the EIP. See the note at the beginning of {ERC20}. NOTE: Does not update the allowance if the current allowance is the maximum `uint256`. Requirements: - `from` and `to` cannot be the zero address. - `from` must have a balance of at least `amount`. - the caller must have allowance for ``from``'s tokens of at least `amount`."
      }
    },
    "version": 1
  },
  "userdoc": {
    "kind": "user",
    "methods": {},
    "version": 1
  }
}