{
  "contractName": "MockContract",
  "abi": [
    {
      "inputs": [],
      "stateMutability": "nonpayable",
      "type": "constructor"
    },
    {
      "inputs": [],
      "name": "totalSupply",
      "outputs": [
        {
          "internalType": "uint256",
          "name": "",
          "type": "uint256"
        }
      ],
      "stateMutability": "view",
      "type": "function"
    },
    {
      "inputs": [
        {
          "internalType": "address",
          "name": "to",
          "type": "address"
        },
        {
          "internalType": "uint256",
          "name": "amount",
          "type": "uint256"
        }
      ],
      "name": "transfer",
      "outputs": [],
      "stateMutability": "nonpayable",
      "type": "function"
    },
    {
      "inputs": [
        {
          "internalType": "address",
          "name": "",
          "type": "address"
        }
      ],
      "name": "balanceOf",
      "outputs": [
        {
          "internalType": "uint256",
          "name": "",
          "type": "uint256"
        }
      ],
      "stateMutability": "view",
      "type": "function"
    }
  ],
  "bytecode": "0x608060405234801561001057600080fd5b50620f424060008190555061022b8061002a6000396000f3fe608060405234801561001057600080fd5b50600436106100415760003560e01c806318160ddd1461004657806370a0823114610064578063a9059cbb14610094575b600080fd5b61004e6100b0565b60405161005b91906100de565b60405180910390f35b61007e6004803603810190610079919061015c565b6100b6565b60405161008b91906100de565b60405180910390f35b6100ae60048036038101906100a991906101b5565b6100c1565b005b60005481565b600080549050919050565b5050565b6000819050919050565b6100d8816100c5565b82525050565b60006020820190506100f360008301846100cf565b92915050565b600080fd5b600073ffffffffffffffffffffffffffffffffffffffff82169050919050565b6000610129826100fe565b9050919050565b6101398161011e565b811461014457600080fd5b50565b60008135905061015681610130565b92915050565b600060208284031215610172576101716100f9565b5b600061018084828501610147565b91505092915050565b610192816100c5565b811461019d57600080fd5b50565b6000813590506101af81610189565b92915050565b600080604083850312156101cc576101cb6100f9565b5b60006101da85828601610147565b92505060206101eb858286016101a0565b915050925092905056fea26469706673582212202aed7eb9b0903261d6d8977b0bd7c59e8cd237eed220fdcd37f3bfc59bf6880564736f6c634300080d0033",
  "immutableReferences": {},
  "source": "// SPDX-License-Identifier: MIT\npragma solidity ^0.8.13;\n\ncontract MockContract {\n\n  uint public totalSupply;\n\n  constructor() {\n    totalSupply = 1000000; \n  }\n\n  function transfer(address to, uint amount) external {\n    // Fake transfer\n  }\n\n  function balanceOf(address) view external returns (uint) {\n    return totalSupply;\n  }\n\n}",
  "sourcePath": "/Users/kenf/Developer/archive/switcheo/Problem 5/contracts/MockContract.sol",
  "compiler": {
    "name": "solc",
    "version": "0.8.13+commit.abaa5c0e.Emscripten.clang"
  },
  "schemaVersion": "3.4.15",
  "updatedAt": "2023-08-20T06:19:06.418Z",
  "devdoc": {
    "kind": "dev",
    "methods": {},
    "version": 1
  },
  "userdoc": {
    "kind": "user",
    "methods": {},
    "version": 1
  }
}