{
  "contractName": "TokenBalanceReader",
  "abi": [
    {
      "inputs": [],
      "stateMutability": "nonpayable",
      "type": "constructor"
    },
    {
      "inputs": [
        {
          "internalType": "address",
          "name": "wallet",
          "type": "address"
        },
        {
          "internalType": "address[]",
          "name": "tokens",
          "type": "address[]"
        }
      ],
      "name": "getTokenBalances",
      "outputs": [
        {
          "components": [
            {
              "internalType": "address",
              "name": "token",
              "type": "address"
            },
            {
              "internalType": "uint256",
              "name": "balance",
              "type": "uint256"
            }
          ],
          "internalType": "struct TokenBalanceReader.TokenBalance[]",
          "name": "",
          "type": "tuple[]"
        }
      ],
      "stateMutability": "view",
      "type": "function",
      "constant": true
    }
  ],
  "bytecode": "0x608060405234801561000f575f80fd5b5061060e8061001d5f395ff3fe608060405234801561000f575f80fd5b5060043610610029575f3560e01c8063d802178e1461002d575b5f80fd5b610047600480360381019061004291906102e9565b61005d565b6040516100549190610442565b60405180910390f35b60605f8383905067ffffffffffffffff81111561007d5761007c610462565b5b6040519080825280602002602001820160405280156100b657816020015b6100a36101f8565b81526020019060019003908161009b5790505b5090505f5b848490508110156101ec575f8585838181106100da576100d961048f565b5b90506020020160208101906100ef91906104bc565b9050604051806040016040528087878581811061010f5761010e61048f565b5b905060200201602081019061012491906104bc565b73ffffffffffffffffffffffffffffffffffffffff1681526020018273ffffffffffffffffffffffffffffffffffffffff166370a082318a6040518263ffffffff1660e01b815260040161017891906104f6565b602060405180830381865afa158015610193573d5f803e3d5ffd5b505050506040513d601f19601f820116820180604052508101906101b79190610539565b8152508383815181106101cd576101cc61048f565b5b60200260200101819052505080806101e490610591565b9150506100bb565b50809150509392505050565b60405180604001604052805f73ffffffffffffffffffffffffffffffffffffffff1681526020015f81525090565b5f80fd5b5f80fd5b5f73ffffffffffffffffffffffffffffffffffffffff82169050919050565b5f6102578261022e565b9050919050565b6102678161024d565b8114610271575f80fd5b50565b5f813590506102828161025e565b92915050565b5f80fd5b5f80fd5b5f80fd5b5f8083601f8401126102a9576102a8610288565b5b8235905067ffffffffffffffff8111156102c6576102c561028c565b5b6020830191508360208202830111156102e2576102e1610290565b5b9250929050565b5f805f60408486031215610300576102ff610226565b5b5f61030d86828701610274565b935050602084013567ffffffffffffffff81111561032e5761032d61022a565b5b61033a86828701610294565b92509250509250925092565b5f81519050919050565b5f82825260208201905092915050565b5f819050602082019050919050565b6103788161024d565b82525050565b5f819050919050565b6103908161037e565b82525050565b604082015f8201516103aa5f85018261036f565b5060208201516103bd6020850182610387565b50505050565b5f6103ce8383610396565b60408301905092915050565b5f602082019050919050565b5f6103f082610346565b6103fa8185610350565b935061040583610360565b805f5b8381101561043557815161041c88826103c3565b9750610427836103da565b925050600181019050610408565b5085935050505092915050565b5f6020820190508181035f83015261045a81846103e6565b905092915050565b7f4e487b71000000000000000000000000000000000000000000000000000000005f52604160045260245ffd5b7f4e487b71000000000000000000000000000000000000000000000000000000005f52603260045260245ffd5b5f602082840312156104d1576104d0610226565b5b5f6104de84828501610274565b91505092915050565b6104f08161024d565b82525050565b5f6020820190506105095f8301846104e7565b92915050565b6105188161037e565b8114610522575f80fd5b50565b5f815190506105338161050f565b92915050565b5f6020828403121561054e5761054d610226565b5b5f61055b84828501610525565b91505092915050565b7f4e487b71000000000000000000000000000000000000000000000000000000005f52601160045260245ffd5b5f61059b8261037e565b91507fffffffffffffffffffffffffffffffffffffffffffffffffffffffffffffffff82036105cd576105cc610564565b5b60018201905091905056fea26469706673582212208a1fc83a0abff8cef7fdf599c0082217e2a2c27f91e7cbd44c87264f6dbd088164736f6c63430008150033",
  "immutableReferences": {},
  "source": "// SPDX-License-Identifier: MIT\npragma solidity ^0.8.0;\n\nimport \"@openzeppelin/contracts/token/ERC20/IERC20.sol\";\nimport \"@openzeppelin/contracts/utils/Strings.sol\";\n\ncontract TokenBalanceReader {\n\n  struct TokenBalance {\n    address token;\n    uint256 balance;\n  }\n\n  constructor() {}\n\n  function getTokenBalances(address wallet, address[] calldata tokens) external view returns (TokenBalance[] memory) {\n    \n    TokenBalance[] memory balances = new TokenBalance[](tokens.length);\n\n    for(uint i = 0; i < tokens.length; i++) {\n      IERC20 token = IERC20(tokens[i]);\n      balances[i] = TokenBalance(tokens[i], token.balanceOf(wallet));\n    }\n\n    return balances;\n  }\n\n}\n\n\n// contract TokenBalanceReader {\n\n//   function getTokenBalances(address wallet, address[] calldata tokens) external view returns (mapping(address => uint256)[] memory) {\n\n//     mapping(address => uint256)[] memory balances = new mapping(address => uint256)[](tokens.length);\n\n//     for(uint i = 0; i < tokens.length; i++) {\n//       address token = tokens[i];\n//       uint256 balance = IERC20(token).balanceOf(wallet);\n\n//       balances[i][token] = balance; \n//     }\n\n//     return balances;\n//   }\n\n// }\n\n",
  "sourcePath": "/Users/kenf/Developer/archive/switcheo/Test5/contracts/TokenBalanceReader.sol",
  "compiler": {
    "name": "solc",
    "version": "0.8.21+commit.d9974bed.Emscripten.clang"
  },
  "schemaVersion": "3.4.15",
  "updatedAt": "2023-08-21T14:44:10.467Z",
  "networkType": "ethereum",
  "devdoc": {
    "kind": "dev",
    "methods": {},
    "version": 1
  },
  "userdoc": {
    "kind": "user",
    "methods": {},
    "version": 1
  }
}